{
  "_format": "hh-sol-artifact-1",
  "contractName": "CrowdFunding",
  "sourceName": "contracts/Crowdfunding.sol",
  "abi": [
    {
      "inputs": [],
      "stateMutability": "nonpayable",
      "type": "constructor"
    },
    {
      "anonymous": false,
      "inputs": [
        {
          "indexed": false,
          "internalType": "string",
          "name": "_title",
          "type": "string"
        },
        {
          "indexed": false,
          "internalType": "string",
          "name": "_description",
          "type": "string"
        },
        {
          "indexed": false,
          "internalType": "address",
          "name": "_benefactor",
          "type": "address"
        },
        {
          "indexed": false,
          "internalType": "uint256",
          "name": "_goal",
          "type": "uint256"
        },
        {
          "indexed": false,
          "internalType": "uint256",
          "name": "_deadline",
          "type": "uint256"
        },
        {
          "indexed": false,
          "internalType": "uint256",
          "name": "_amountRaised",
          "type": "uint256"
        },
        {
          "indexed": false,
          "internalType": "address",
          "name": "_owner",
          "type": "address"
        }
      ],
      "name": "CampaignCreated",
      "type": "event"
    },
    {
      "anonymous": false,
      "inputs": [],
      "name": "CampaignEnded",
      "type": "event"
    },
    {
      "anonymous": false,
      "inputs": [
        {
          "indexed": false,
          "internalType": "uint256",
          "name": "_campaignId",
          "type": "uint256"
        },
        {
          "indexed": false,
          "internalType": "uint256",
          "name": "_amount",
          "type": "uint256"
        },
        {
          "indexed": false,
          "internalType": "uint256",
          "name": "_date",
          "type": "uint256"
        }
      ],
      "name": "DonationReceived",
      "type": "event"
    },
    {
      "inputs": [],
      "name": "campaignCount",
      "outputs": [
        {
          "internalType": "uint256",
          "name": "",
          "type": "uint256"
        }
      ],
      "stateMutability": "view",
      "type": "function"
    },
    {
      "inputs": [
        {
          "internalType": "uint256",
          "name": "",
          "type": "uint256"
        }
      ],
      "name": "campaigns",
      "outputs": [
        {
          "internalType": "string",
          "name": "title",
          "type": "string"
        },
        {
          "internalType": "string",
          "name": "description",
          "type": "string"
        },
        {
          "internalType": "address",
          "name": "benefactor",
          "type": "address"
        },
        {
          "internalType": "address",
          "name": "owner",
          "type": "address"
        },
        {
          "internalType": "uint256",
          "name": "goal",
          "type": "uint256"
        },
        {
          "internalType": "uint256",
          "name": "deadline",
          "type": "uint256"
        },
        {
          "internalType": "uint256",
          "name": "amountRaised",
          "type": "uint256"
        }
      ],
      "stateMutability": "view",
      "type": "function"
    },
    {
      "inputs": [
        {
          "internalType": "string",
          "name": "_title",
          "type": "string"
        },
        {
          "internalType": "string",
          "name": "_description",
          "type": "string"
        },
        {
          "internalType": "address",
          "name": "_benefactor",
          "type": "address"
        },
        {
          "internalType": "uint256",
          "name": "_goal",
          "type": "uint256"
        },
        {
          "internalType": "uint256",
          "name": "_duration",
          "type": "uint256"
        }
      ],
      "name": "createCampaign",
      "outputs": [],
      "stateMutability": "nonpayable",
      "type": "function"
    },
    {
      "inputs": [
        {
          "internalType": "uint256",
          "name": "_campaignId",
          "type": "uint256"
        }
      ],
      "name": "donateToCampaign",
      "outputs": [],
      "stateMutability": "payable",
      "type": "function"
    },
    {
      "inputs": [
        {
          "internalType": "uint256",
          "name": "_campaignId",
          "type": "uint256"
        }
      ],
      "name": "endCampaign",
      "outputs": [],
      "stateMutability": "payable",
      "type": "function"
    },
    {
      "inputs": [],
      "name": "owner",
      "outputs": [
        {
          "internalType": "address",
          "name": "",
          "type": "address"
        }
      ],
      "stateMutability": "view",
      "type": "function"
    }
  ],
  "bytecode": "0x608060405234801561001057600080fd5b5033600260006101000a81548173ffffffffffffffffffffffffffffffffffffffff021916908373ffffffffffffffffffffffffffffffffffffffff160217905550611350806100616000396000f3fe6080604052600436106100555760003560e01c8063141961bc1461005a57806342a4fda81461009d5780637274e30d146100b95780638da5cb5b146100e45780639304d1241461010f578063dd0408ae14610138575b600080fd5b34801561006657600080fd5b50610081600480360381019061007c9190610956565b610154565b6040516100949796959493929190610a63565b60405180910390f35b6100b760048036038101906100b29190610956565b6102e6565b005b3480156100c557600080fd5b506100ce61044f565b6040516100db9190610ae0565b60405180910390f35b3480156100f057600080fd5b506100f9610455565b6040516101069190610afb565b60405180910390f35b34801561011b57600080fd5b5061013660048036038101906101319190610c77565b61047b565b005b610152600480360381019061014d9190610956565b61063e565b005b600060205280600052604060002060009150905080600001805461017790610d59565b80601f01602080910402602001604051908101604052809291908181526020018280546101a390610d59565b80156101f05780601f106101c5576101008083540402835291602001916101f0565b820191906000526020600020905b8154815290600101906020018083116101d357829003601f168201915b50505050509080600101805461020590610d59565b80601f016020809104026020016040519081016040528092919081815260200182805461023190610d59565b801561027e5780601f106102535761010080835404028352916020019161027e565b820191906000526020600020905b81548152906001019060200180831161026157829003601f168201915b5050505050908060020160009054906101000a900473ffffffffffffffffffffffffffffffffffffffff16908060030160009054906101000a900473ffffffffffffffffffffffffffffffffffffffff16908060040154908060050154908060060154905087565b80600073ffffffffffffffffffffffffffffffffffffffff1660008083815260200190815260200160002060020160009054906101000a900473ffffffffffffffffffffffffffffffffffffffff1673ffffffffffffffffffffffffffffffffffffffff160361038b576040517f08c379a000000000000000000000000000000000000000000000000000000000815260040161038290610dd6565b60405180910390fd5b600080838152602001908152602001600020600501548042106103e3576040517f08c379a00000000000000000000000000000000000000000000000000000000081526004016103da90610e42565b60405180910390fd5b3460008085815260200190815260200160002060060160008282546104089190610e91565b925050819055507f8a811f9b26fd857548fe3870975f8bebd10c2825d185d0e7e02154906a39c9c383344260405161044293929190610ec5565b60405180910390a1505050565b60015481565b600260009054906101000a900473ffffffffffffffffffffffffffffffffffffffff1681565b6001600081548092919061048e90610efc565b9190505550600081426104a19190610e91565b90506040518060e001604052808781526020018681526020018573ffffffffffffffffffffffffffffffffffffffff1681526020013373ffffffffffffffffffffffffffffffffffffffff16815260200184815260200182815260200160008152506000806001548152602001908152602001600020600082015181600001908161052c91906110f0565b50602082015181600101908161054291906110f0565b5060408201518160020160006101000a81548173ffffffffffffffffffffffffffffffffffffffff021916908373ffffffffffffffffffffffffffffffffffffffff16021790555060608201518160030160006101000a81548173ffffffffffffffffffffffffffffffffffffffff021916908373ffffffffffffffffffffffffffffffffffffffff1602179055506080820151816004015560a0820151816005015560c082015181600601559050507fd93e67e34e8aa40162ada192dfdbae2e426f2bd7630bb172d4484c688ee9d02f868686868560003360405161062e97969594939291906111fd565b60405180910390a1505050505050565b80600073ffffffffffffffffffffffffffffffffffffffff1660008083815260200190815260200160002060020160009054906101000a900473ffffffffffffffffffffffffffffffffffffffff1673ffffffffffffffffffffffffffffffffffffffff16036106e3576040517f08c379a00000000000000000000000000000000000000000000000000000000081526004016106da90610dd6565b60405180910390fd5b600080838152602001908152602001600020600501548042101561073c576040517f08c379a0000000000000000000000000000000000000000000000000000000008152600401610733906112c6565b60405180910390fd5b600080600085815260200190815260200160002090506000816006015490506000826004015490506000818361077291906112e6565b9050818311156107f6578360020160009054906101000a900473ffffffffffffffffffffffffffffffffffffffff1673ffffffffffffffffffffffffffffffffffffffff166108fc849081150290604051600060405180830381858888f193505050501580156107e6573d6000803e3d6000fd5b50600084600601819055506108d7565b8360030160009054906101000a900473ffffffffffffffffffffffffffffffffffffffff1673ffffffffffffffffffffffffffffffffffffffff166108fc829081150290604051600060405180830381858888f19350505050158015610860573d6000803e3d6000fd5b508360020160009054906101000a900473ffffffffffffffffffffffffffffffffffffffff1673ffffffffffffffffffffffffffffffffffffffff166108fc849081150290604051600060405180830381858888f193505050501580156108cb573d6000803e3d6000fd5b50600084600601819055505b7f553ae054398f4abd9ec5710b0d247eaa1cd982245798110d0ceb48f43e37030960405160405180910390a150505050505050565b6000604051905090565b600080fd5b600080fd5b6000819050919050565b61093381610920565b811461093e57600080fd5b50565b6000813590506109508161092a565b92915050565b60006020828403121561096c5761096b610916565b5b600061097a84828501610941565b91505092915050565b600081519050919050565b600082825260208201905092915050565b60005b838110156109bd5780820151818401526020810190506109a2565b60008484015250505050565b6000601f19601f8301169050919050565b60006109e582610983565b6109ef818561098e565b93506109ff81856020860161099f565b610a08816109c9565b840191505092915050565b600073ffffffffffffffffffffffffffffffffffffffff82169050919050565b6000610a3e82610a13565b9050919050565b610a4e81610a33565b82525050565b610a5d81610920565b82525050565b600060e0820190508181036000830152610a7d818a6109da565b90508181036020830152610a9181896109da565b9050610aa06040830188610a45565b610aad6060830187610a45565b610aba6080830186610a54565b610ac760a0830185610a54565b610ad460c0830184610a54565b98975050505050505050565b6000602082019050610af56000830184610a54565b92915050565b6000602082019050610b106000830184610a45565b92915050565b600080fd5b600080fd5b7f4e487b7100000000000000000000000000000000000000000000000000000000600052604160045260246000fd5b610b58826109c9565b810181811067ffffffffffffffff82111715610b7757610b76610b20565b5b80604052505050565b6000610b8a61090c565b9050610b968282610b4f565b919050565b600067ffffffffffffffff821115610bb657610bb5610b20565b5b610bbf826109c9565b9050602081019050919050565b82818337600083830152505050565b6000610bee610be984610b9b565b610b80565b905082815260208101848484011115610c0a57610c09610b1b565b5b610c15848285610bcc565b509392505050565b600082601f830112610c3257610c31610b16565b5b8135610c42848260208601610bdb565b91505092915050565b610c5481610a33565b8114610c5f57600080fd5b50565b600081359050610c7181610c4b565b92915050565b600080600080600060a08688031215610c9357610c92610916565b5b600086013567ffffffffffffffff811115610cb157610cb061091b565b5b610cbd88828901610c1d565b955050602086013567ffffffffffffffff811115610cde57610cdd61091b565b5b610cea88828901610c1d565b9450506040610cfb88828901610c62565b9350506060610d0c88828901610941565b9250506080610d1d88828901610941565b9150509295509295909350565b7f4e487b7100000000000000000000000000000000000000000000000000000000600052602260045260246000fd5b60006002820490506001821680610d7157607f821691505b602082108103610d8457610d83610d2a565b5b50919050565b7f43616d706169676e20646f65736e277420657869737400000000000000000000600082015250565b6000610dc060168361098e565b9150610dcb82610d8a565b602082019050919050565b60006020820190508181036000830152610def81610db3565b9050919050565b7f43616d706169676e2068617320656e6465642e00000000000000000000000000600082015250565b6000610e2c60138361098e565b9150610e3782610df6565b602082019050919050565b60006020820190508181036000830152610e5b81610e1f565b9050919050565b7f4e487b7100000000000000000000000000000000000000000000000000000000600052601160045260246000fd5b6000610e9c82610920565b9150610ea783610920565b9250828201905080821115610ebf57610ebe610e62565b5b92915050565b6000606082019050610eda6000830186610a54565b610ee76020830185610a54565b610ef46040830184610a54565b949350505050565b6000610f0782610920565b91507fffffffffffffffffffffffffffffffffffffffffffffffffffffffffffffffff8203610f3957610f38610e62565b5b600182019050919050565b60008190508160005260206000209050919050565b60006020601f8301049050919050565b600082821b905092915050565b600060088302610fa67fffffffffffffffffffffffffffffffffffffffffffffffffffffffffffffffff82610f69565b610fb08683610f69565b95508019841693508086168417925050509392505050565b6000819050919050565b6000610fed610fe8610fe384610920565b610fc8565b610920565b9050919050565b6000819050919050565b61100783610fd2565b61101b61101382610ff4565b848454610f76565b825550505050565b600090565b611030611023565b61103b818484610ffe565b505050565b5b8181101561105f57611054600082611028565b600181019050611041565b5050565b601f8211156110a45761107581610f44565b61107e84610f59565b8101602085101561108d578190505b6110a161109985610f59565b830182611040565b50505b505050565b600082821c905092915050565b60006110c7600019846008026110a9565b1980831691505092915050565b60006110e083836110b6565b9150826002028217905092915050565b6110f982610983565b67ffffffffffffffff81111561111257611111610b20565b5b61111c8254610d59565b611127828285611063565b600060209050601f83116001811461115a5760008415611148578287015190505b61115285826110d4565b8655506111ba565b601f19841661116886610f44565b60005b828110156111905784890151825560018201915060208501945060208101905061116b565b868310156111ad57848901516111a9601f8916826110b6565b8355505b6001600288020188555050505b505050505050565b6000819050919050565b60006111e76111e26111dd846111c2565b610fc8565b610920565b9050919050565b6111f7816111cc565b82525050565b600060e0820190508181036000830152611217818a6109da565b9050818103602083015261122b81896109da565b905061123a6040830188610a45565b6112476060830187610a54565b6112546080830186610a54565b61126160a08301856111ee565b61126e60c0830184610a45565b98975050505050505050565b7f43616d706169676e20686173206e6f7420656e6465642e000000000000000000600082015250565b60006112b060178361098e565b91506112bb8261127a565b602082019050919050565b600060208201905081810360008301526112df816112a3565b9050919050565b60006112f182610920565b91506112fc83610920565b925082820390508181111561131457611313610e62565b5b9291505056fea2646970667358221220b87b1d26977def6c236b6d7354f5174d443a32365bfac0d495e9f3fc7d89a60064736f6c63430008180033",
  "linkReferences": {},
  "deployedLinkReferences": {}
}